:020000040800F2
:10000000805000205D020008472900088125000873
:1000100045290008B10D0008E15F0008000000005C
:100020000000000000000000000000009D0100082A
:10003000B30D000800000000F901000815360008A3
:1000400077020008770200087702000877020008AC
:10005000770200087702000877020008770200089C
:10006000770200087702000877020008770200088C
:10007000770200087702000877020008770200087C
:10008000770200087702000877020008770200086C
:10009000770200087702000877020008770200085C
:1000A000770200087702000877020008770200084C
:1000B000770200087702000877020008770200083C
:1000C000770200087702000877020008770200082C
:1000D00077020008795F000877020008855F000852
:1000E000770200087702000877020008770200080C
:1000F000D936000877020008770200087702000866
:1001000077020008770200087702000877020008EB
:1001100077020008770200087702000877020008DB
:1001200077020008770200087702000877020008CB
:1001300077020008770200087702000877020008BB
:1001400077020008770200087702000877020008AB
:10015000770200087702000877020008770200089B
:10016000770200087702000877020008770200088B
:10017000770200087702000877020008770200087B
:100180007702000877020008DFF80CD000F0D8FBF7
:100190000048004785620008805000202C4B1968F9
:1001A0000868B0E8F04F80F30988BFF36F8F4FF015
:1001B000000080F3118870470000000008480068C4
:1001C000006880F308884FF0000080F3148862B65E
:1001D00061B6BFF34F8FBFF36F8F00DF00BF00BF6B
:1001E00008ED00E0DFF80C00016841F470010160E7
:1001F000704700BF88ED00E0EFF30980BFF36F8F19
:10020000134B1A681EF0100F08BF20ED108A20E96A
:10021000F04F106009B44FF0500080F31188BFF325
:100220004F8FBFF36F8F06F0ADFF4FF0000080F3EC
:10023000118809BC19680868B0E8F04F1EF0100F6B
:1002400008BFB0EC108A80F30988BFF36F8F704746
:1002500028000020EFF30580704700000648804723
:1002600006480047FEE7FEE7FEE7FEE7FEE7FEE79B
:10027000FEE7FEE7FEE7FEE7C93600088901000851
:100280002DE9F05F0546002092469B4688460646CB
:10029000814640241BE0284641464746224600F05E
:1002A00048FA53465A46C01A914110D3114618468F
:1002B000224600F02FFA2D1A67EB01084F4622461E
:1002C0000120002100F026FA17EB00094E41201E04
:1002D000A4F10104DFDC484631462A464346BDE826
:1002E000F09F40EA01039B0703D009E008C9121FF1
:1002F00008C0042AFAD203E011F8013B00F8013BE0
:10030000521EF9D27047D2B201E000F8012B491E0B
:10031000FBD270470022F6E710B513460A460446A2
:100320001946FFF7F0FF204610BD2DE9FE4F80462D
:1003300081EA0300C00F0C46009021F0004123F039
:100340000045B8EB0200A94105D24046214690463F
:100350001C460B46024623F00040104347D0270DB1
:10036000C7F30A00C3F30A510290401A01904028D3
:100370006BDAC3F3130040F4801B0098924620B15F
:100380000023D2EB030A63EB0B0B01985946C0F133
:100390004002504600F0BEF906460D46504659460A
:1003A000019A00F0D6F910EB08006141002487EAB9
:1003B000115284EAE7731A4340D0009A62B3019A5B
:1003C000012A4FEA075215DC001B61EB02014FF0D6
:1003D000004202EA0752CDE90042001C41F58011BB
:1003E00032462B4600F00DFA03B0BDE8F08F4046D0
:1003F0002146F9E7001B61EB0201001C41F5801367
:1004000000185B412018A2F5001747EB030140EAF2
:10041000D570B6196D4111E06D084FEA360645EA10
:10042000C0754FEA0752001B61EB0201001C41F549
:10043000801149084FEA30000019514132462B46DD
:1004400003B0BDE8F04F00F0CDB9009801224000A4
:100450000023D0EB020263EBE073009821464FEAE1
:10046000E074B8EB000061EB0401E9E783F00043BE
:100470005BE781F0004158E72DE9FE4F81EA030474
:1004800004F0004421F0004100944FF0000B23F0F1
:10049000004350EA01045ED052EA03045BD0C3F388
:1004A0000A54C1F30A552C44A4F2F3340194A0FB7E
:1004B0000254C1F3130141F48011C3F3130343F455
:1004C000801301FB024400FB034E840A970A44EAAE
:1004D000815447EA8357A4FB076802958D0A05FB00
:1004E00007854FEA932C04FB0C542705029D4FEA25
:1004F000065847EA1637B5EB08056EEB070C870E72
:10050000920E47EA811742EA8312A7FB0201B6EB7B
:100510000B0164EB00042B0D43EA0C335E1844EB33
:100520001C50DA465146E7FB0201C5F313044FEABB
:100530000B3343EA14534FEA0432019C43EA0603A7
:10054000A4F10C040294009CCDE900B400F059F928
:1005500003B0BDE8F08F00200146F9E72DE9F04D2A
:1005600081EA030404F0004B21F0004514464FF0EB
:10057000000A23F0004150EA050220D054EA0102AB
:100580001DD0C5F30A570246C5F31303C1F3130088
:10059000C1F30A5640F4801543F48013A7EB060814
:1005A000101BD64608F2FD3873EB050002D308F1A4
:1005B000010801E092185B41B8F1000F03DA002056
:1005C0000146BDE8F08D00204FF4801106468446B8
:1005D0000EE0171B73EB050705D3121B63EB050336
:1005E00006434CEA010C49084FEA300092185B417F
:1005F00050EA0107EDD152EA030012D082EA04006A
:1006000083EA0501084305D0101BAB4106D2012245
:10061000002306E000224FF0004302E06FF00102E9
:1006200053101AEB06004CEB085110EB0A0041EB9B
:100630000B01BDE8F04D00F0D5B80EB540F23341E6
:1006400002910021CDE900110A460B4600F0D9F8CD
:1006500003B000BDC1F30A5210B5C1F3130140F25B
:10066000FF3341F480119A4201DA002010BD40F2BC
:1006700033439A42A2F2334203DC524200F059F86B
:1006800010BD904010BD00F0004230F000400AD094
:10069000C10D01F56071C0F3160042EA0151C208B4
:1006A00040071143704700200146704730B5041ED3
:1006B00071F1000404DB4FF00044404264EB01019F
:1006C000141E73F1000405DB1C464FF00043524238
:1006D00063EB04038B4208BF824230BD01F000434C
:1006E00030B421F0004150EA010206D00A0DA2F513
:1006F0006072C1F31301002A02DC30BC0020704795
:10070000440F44EAC104C100E01830BC00EBC25001
:1007100000F031B8202A04DB203A00FA02F1002070
:1007200070479140C2F1200320FA03F3194390402F
:100730007047202A04DB203A21FA02F0002170479A
:1007400021FA02F3D040C2F1200291400843194639
:100750007047202A06DBCB17203A41FA02F043EA21
:10076000E07306E041FA02F3D040C2F1200291406A
:100770000843194670470029A8BF7047401C49002C
:1007800008BF20F00100704710B4B0FA80FC00FAF6
:100790000CF050EA010404BF10BC704749B1CCF121
:1007A000200421FA04F411FA0CF118BF01212143AD
:1007B0000843A3EB0C01CB1D4FEA00614FEA102068
:1007C00042BF002010BC704700EBC350104400290A
:1007D000A4BF10BC7047401C490008BF20F00100B6
:1007E00010BC704710B5141E73F1000408DA401CE9
:1007F00041F1000192185B411A4301D120F0010040
:1008000010BD2DE9F04D92469B4611B1B1FA81F22F
:1008100002E0B0FA80F220329046FFF77BFF0446F8
:100820000F4640EA0A0041EA0B0153465A46084384
:1008300013D0114653EA010019D0C8F140025046C6
:10084000FFF777FF05460E46504659464246FFF7EA
:1008500061FF084305D0012004E020463946BDE889
:10086000F08D0020054346EAE0762C4337430A9892
:100870006305E40AA0EB08000022FD0A44EA47549D
:100880000A3002D500200146E9E701051019694147
:10089000DDE9084500196941BDE8F04DA2E72DE901
:1008A000F04D00231A461B1A8A4103DB0020014643
:1008B000BDE8F08DC1F30A52C1F3130141F4801574
:1008C0004FF0000BD10702D100186D41521E0027D6
:1008D000044640F2FF11384601EB620A3E4680466C
:1008E000024600204FF48011FFF723FFC219714127
:1008F000BB1846EB0100B4EB030C75EB000C04D302
:10090000E41A65EB000517460E46241908F10100AC
:100910006D4180463428E3DDF91946EB0600091BDA
:10092000A84103D24FF0FF32134601E000221346E4
:100930001BEB070046EB0A51BDE8F04DFFF752BF35
:10094000064C074D06E0E06840F0010394E807001C
:1009500098471034AC42F6D3FFF71AFC007F00082A
:10096000207F000870B58C1810F8015B15F00703A4
:1009700001D110F8013B2A1106D110F8012B03E038
:1009800010F8016B01F8016B5B1EF9D12B0705D440
:100990000023521E0DD401F8013BFAE710F8013B89
:1009A000CB1A921C03E013F8015B01F8015B521EA5
:1009B000F9D5A142D8D3002070BD000010B50022A7
:1009C00010213A4800F063FB642006F099FA0920F0
:1009D00000F088F9002000F085F9432000F082F94A
:1009E0000A2000F07FF9102000F07CF9852000F04B
:1009F00079F90B2000F076F9212000F073F98D20B1
:100A000000F070F9192000F06DF9082000F06AF983
:100A1000772000F067F91A2000F064F9002000F058
:100A200061F9702000F05EF91B2000F05BF90120F5
:100A300000F058F9E52000F055F9212000F052F9B6
:100A4000062000F04FF9012000F04CF9802000F062
:100A500049F9222000F046F9062000F043F9012070
:100A600000F040F9802000F03DF9232000F03AF931
:100A7000062000F037F9002000F034F9A02000F043
:100A800031F9042000F02EF9002000F02BF90520A8
:100A900000F028F9012000F025F9012000F022F9EA
:100AA000BDE81040C02000F01DB900000000024069
:100AB00010B5002240213A4800F0E9FA642006F01F
:100AC0001FFA092000F034F9002000F031F901206C
:100AD00000F02EF90A2000F02BF9102000F028F980
:100AE000852000F025F90B2000F022F9212000F0EC
:100AF0001FF98D2000F01CF9192000F019F90820C9
:100B000000F016F9772000F013F91A2000F010F920
:100B1000002000F00DF9702000F00AF91B2000F011
:100B200007F9012000F004F9E52000F001F9212087
:100B300000F0FEF8062000F0FBF8012000F0F8F8C5
:100B4000802000F0F5F8222000F0F2F8062000F0F6
:100B5000EFF8012000F0ECF8802000F0E9F8232005
:100B600000F0E6F8062000F0E3F8002000F0E0F8DE
:100B7000A02000F0DDF8042000F0DAF8002000F0FA
:100B8000D7F8052000F0D4F8012000F0D1F80120BA
:100B900000F0CEF8BDE81040C02000F0C9B8000059
:100BA0000004024070B50024104E25466400002267
:100BB0002021304600F06BFA142006F0A1F9402104
:100BC000304600F05FFA00B1641C0122202130465B
:100BD00000F05DFA142006F093F96D1CEDB2182DAB
:100BE000E4D3C82006F08CF9204670BD0000024016
:100BF00070B50024104E25466400002208213046BE
:100C000000F045FA142006F07BF91021304600F080
:100C100039FA00B1641C01220821304600F037FA8D
:100C2000142006F06DF96D1CEDB2182DE4D3C82028
:100C300006F066F9204670BD0004024070B5134D01
:100C400000221021284600F022FA012280212846A5
:100C500000F01DFA002400222021284600F017FA97
:100C6000642006F04DF901222021284600F00FFAF9
:100C7000642006F045F9641CE4B2482CEBD3284606
:100C8000BDE870400122102100F001BA00000240CE
:100C900070B5134D00224021284600F0F8F90122DA
:100CA0002021284600F0F3F90024002208212846DC
:100CB00000F0EDF9642006F023F90122082128460E
:100CC00000F0E5F9642006F01BF9641CE4B2482C3E
:100CD000EBD32846BDE870400122402100F0D7B98F
:100CE0000004024070B5114E054600240022202168
:100CF000304600F0CCF9280601D5012200E00022A0
:100D00008021304600F0C3F9C82006F0F9F801222E
:100D10002021304600F0BBF9C82006F0F1F8680643
:100D2000641C050EE4B2082CE0D370BD0000024044
:100D300070B5114E0546002400220821304600F00F
:100D4000A6F9280601D5012200E000222021304624
:100D500000F09DF9C82006F0D3F8012208213046A2
:100D600000F095F9C82006F0CBF86806641C050E63
:100D7000E4B2082CE0D370BD00040240044C606C67
:100D80008047606C8047606C8047606C8047F6E706
:100D900070010020044C606C8047606C8047606C80
:100DA0008047606C8047F6E7F80000207047704786
:100DB000FEE7704772B6FEE72DE9F0410446876D05
:100DC00000F06AF9064694F835000025022806D09E
:100DD0008020606584F834500120BDE8F0812068EF
:100DE000016821F0160101602068416921F080014D
:100DF0004161206C08B9A06C20B12068016821F025
:100E0000080101602068016821F0010101600CE027
:100E100000F042F9801B052807D9202060650320D7
:100E200084F8350084F83450D7E720680068C0079C
:100E3000EED194F85C103F208840B860012084F81F
:100E4000350084F834500020C7E790F835100229A7
:100E500003D08021416501207047052180F83510BD
:100E60000068016821F00101016000207047000066
:100E700070B5044600F010F90546601C02D0044825
:100E80000078044400F008F9401BA042FAD370BD7A
:100E9000180000202DE9F84FDFF8BCA10022012541
:100EA00003264FF00F090AF1040BAAF1040E00BF4C
:100EB0000B6805FA02F42340A34270D10F7907F0C2
:100EC0000307012F01D0022F16D187684FEA42088D
:100ED00006FA08FC27EA0C07D1F80CC00CFA08FC4B
:100EE0004CEA070CC0F808C04768A7430C79C4F364
:100EF000001494403C4344600C79E443A4070AD0B6
:100F0000C4684FEA420C06FA0CF7BC438F6807FA34
:100F10000CF72743C7600C7904F00304022C12D1AC
:100F2000D40800EB840CDCF820405707FF0E09FAC8
:100F300007F824EA0804D1F8108008FA07F848EA0C
:100F40000408CCF8208004684FEA420C06FA0CF73B
:100F5000BC430F7907F0030707FA0CF72743076034
:100F60004C6814F4403F70D03C4C276847F48047ED
:100F70002760246822F0030704F480440094384C6E
:100F800007EB040CDCF8084897074FEA177809FAD2
:100F900008F7BC43334FB84202D1002724E054E0A5
:100FA000314FB84201D101271EE0304FB84201D184
:100FB000022719E02E4FB84201D1032714E02D4F2C
:100FC000B84201D104270FE02B4FB84201D10527C9
:100FD0000AE02A4FB84201D1062705E0284FB8425F
:100FE00001D1072700E0082707FA08F72743CCF8C4
:100FF0000878DAF800405746D1F804C09C435FEA0D
:10100000CC2C00D51C433C60DBF800405F46D1F897
:1010100004C09C435FEA8C2C00D51C433C60DEF886
:1010200000407746D1F804C09C435FEA8C3C00D571
:101030001C433C60084F083F3C68D1F804C09C4307
:101040005FEACC3C00D51C433C60521C102AFFF4E4
:101050002FAFBDE8F88F0000083C01404438024043
:10106000003001400000024000040240000802403D
:10107000000C024000100240001402400018024020
:10108000001C02400069084000D0012070470AB1EE
:10109000816170470904FBE70148806870470000E0
:1010A000180000200248816802781144816070476E
:1010B000180000200B4810B5016841F40071016070
:1010C000016841F480610160016841F48071016050
:1010D000032000F099F80F2000F006F800F04AF81D
:1010E000002010BD003C024030B505461C4887B0CA
:1010F0000024016841F002010160006806A900F0C7
:101100000200009001A800F02BF900F059F91549F0
:101110004000B0FBF1F11548134A491E026040F24D
:10112000E732C0E90324C0E90114846100F0B0FD96
:10113000040012D10D4800F0EDFD04000DD12C206B
:1011400000F034F8102D07D2002229462C2000F0A0
:101150003BF80748056000E0012407B0204630BD99
:101160004438024040420F00000401406403002064
:101170001C0000200C4882B0016841F480410160ED
:10118000006800F4804000900748001F016841F0AB
:10119000805101600068002200F0805000900F2113
:1011A000901E02B000F010B844380240002809DB5D
:1011B00000F01F02012191404009800000F1E02071
:1011C000C0F8001170470000F0B40E4B1B680C46CD
:1011D000C3F30223C3F10705042D00D90425191D0B
:1011E000072901D2002300E0DB1E012606FA05F1E3
:1011F000491E214099409E40761E16403143F0BC66
:1012000004F0C4BF0CED00E0064900F007020868D6
:101210004FF6FF03184040EA0220034A10430860DB
:10122000704700000CED00E00000FA052DE9F047E2
:101230000E46050065D0DFF81481D8F80000F7B23B
:1012400000F00700B04207D288F80070D8F800001C
:1012500000F00700B04254D128683D4C810712D5F8
:10126000400703D5206840F4E0502060287800074C
:1012700003D5206840F4604020602068A96820F011
:10128000F000084320602878C0072DD030496868F6
:101290000839012812D0022813D0032811D0096878
:1012A000890700292DDA216821F00301014321601B
:1012B000FFF7F2FE814641F2883A0EE009688903A1
:1012C000EFE709688901ECE7FFF7E6FEA0EB09010B
:1012D000514502D90320BDE8F0872068696800F015
:1012E0000C00B0EB810FEFD1D8F80010404601F0B0
:1012F0000701B14207D90770006800F00700B0424B
:1013000001D00120E7E72878400705D52068E96883
:1013100020F4E050084320602878000706D52068B4
:10132000296920F4604040EAC100206000F058F8CC
:101330002168084AC1F30311515CC840064908609E
:1013400006480068FFF7D0FE0020C4E7003C0240DA
:1013500008380240B87E0008240000201C0000204D
:101360000F2202600C4A136803F003034360136802
:1013700003F0F0038360136803F4E053C360126862
:101380004FF4E05303EAD20202610448006800F01F
:10139000070008607047000008380240003C024027
:1013A0000448054900680968044AC1F38221515C78
:1013B000C84070472400002008380240C87E00085A
:1013C0000448054900680968044AC1F34231515C88
:1013D000C84070472400002008380240C87E00083A
:1013E000154810B5006810F00C02144813D01449C9
:1013F000042A0FD0082A0ED10F4C241F226823681C
:1014000002F03F025B0207D52068C0F38810A0FB02
:10141000010106E0084610BD2168C1F38811A1FB57
:1014200000010023FEF72CFF2168C1F30141491C94
:101430004900B0FBF1F010BD083802400024F40070
:1014400040787D012DE9F84F04006ED02078DFF858
:101450004C93C007A9F104054AD009F104000168C2
:10146000C1F38101012908D00068C0F3810002287E
:101470000AD1D9F80000400206D52868800337D584
:1014800060680028E1D033E06068B0F5803F10D09C
:10149000B0F5A02F286810D020F48030286028688C
:1014A00020F4802028606068A8B1FFF7F5FD0646AB
:1014B0000DE0286840F48030F4E740F48020286094
:1014C000F7E700BFFFF7E8FD801B642873D82868A2
:1014D0008003F7D50CE0FFF7DFFD064605E000BF0F
:1014E000FFF7DAFD801B6428F0D828688003F7D462
:1014F0002078DFF8AC8280074FF0000A3ED5A7487D
:10150000001D016811F00C0F08D00068C0F38100C5
:1015100002280BD1D9F80000400207D428688007C0
:1015200016D5E068012800D112E033E1E068B8B1D7
:101530000120C8F80000FFF7AFFD064605E000BF38
:10154000FFF7AAFD801B0228C0D828688007F7D5BE
:101550002868216920F0F80040EAC10028600DE009
:10156000C8F800A0FFF798FD064604E0FFF794FDD9
:10157000801B02281FD828688007F7D4207800072E
:1015800022D5864F87486169703771B101210160AA
:10159000FFF782FD064604E0FFF77EFD801B022870
:1015A00009D838688007F7D50EE0C0F800A0FFF72B
:1015B00073FD064605E082E0FFF76EFD801B022802
:1015C0007DD838688007F7D42078400768D5DFF8E1
:1015D000CCB100270BF13C0BDBF80000C0000BD4B2
:1015E000DBF8001041F08051CBF80010DBF8000070
:1015F000012700F0805000906B4E3068C00510D479
:10160000306840F480703060FFF746FD009005E0E0
:10161000FFF742FD0099401A022850D83068C005F3
:10162000F6D55E4EA0686C3601280FD005283068CC
:1016300010D020F001003060306820F004003060ED
:10164000A068B8B1FFF728FD00900FE0306840F0C7
:101650000100F4E740F004003060F7E7FFF71CFDFD
:101660000099411A41F28830814266D8306880077B
:10167000F4D50EE0FFF710FD009007E0FFF70CFD3A
:101680000099411A41F28830814256D8306880076B
:10169000F4D42FB1DBF8001021F08051CBF800100A
:1016A000A069C8B33D49091D0968C1F38101022938
:1016B0004AD00228504607D0C8F8600000E03CE05D
:1016C000FFF7EAFC04463BE04746C8F86000FFF736
:1016D000E3FC064605E000BFFFF7DEFC801B0228A6
:1016E0002BD828688001F7D4D4E907010843A16A00
:1016F0002E4A490802EB0141626A41EA821108431D
:1017000094F82C1040EA0161C9F8001001203866F5
:10171000FFF7C2FC044606E03EE000BFFFF7BCFC5A
:10172000001B022809D828688001F7D534E000BFE3
:10173000FFF7B2FC001B022802D90320BDE8F88F96
:1017400028688001F4D427E00128F7D0D9F80000F8
:10175000E26900F4800191421CD1226A00F03F014D
:10176000914217D147F6C071626A0140B1EB821F06
:1017700010D1A26A4FF0FF3300F4403103EB520264
:10178000B1EB024F06D194F82C1000F07060B0EB72
:10179000016F01D00120D1E70020CFE704380240DB
:1017A00000004742800E4742007000400000FFFFEB
:1017B0002DE9FE430446002603200D4684F834003C
:1017C000606C03285ED0B5F5805F5BD04FF4006796
:1017D00000204FF08068BD421FD1814600900190EB
:1017E0000021206801F030FB800113D469462046B7
:1017F00001F0BCFD07000DD10198400334D5B4F8C9
:1018000050000104206801F04BFB070002D10221C7
:10181000206823E0A06B384328E01DB1A06B40F0A6
:10182000006023E08146009001900021206801F0D3
:101830000BFB8001EED46946204601F097FD0700BE
:10184000E8D10198C0030FD5B4F850000104206816
:1018500001F026FB0700DDD10021206801F06DFBBF
:101860000700D7D14F46D5E74746D3E7A063A06B23
:10187000144F4FF0010848B12068876384F8348022
:1018800001260EE0A06B40F08050EFE7211DD4E967
:10189000050C0EC9CDE90050CDF808C0206801F054
:1018A000D6FA4FF40071206801F02EFB28B12168B0
:1018B0008F63A16B0143A163012684F83480304615
:1018C000BDE8FE83FF054000F0B5426E920F0A703E
:1018D000426EC2F383624A70426EC2F301628A7042
:1018E000426E120CCA70B0F86420120A0A7190F8A5
:1018F00064204A71826E120DCA80826EC2F3034266
:101900000A72B0F86820C2F3C0324A72B0F8682098
:10191000C2F380328A72B0F86820C2F34032CA72D1
:10192000B0F86820C2F300320A7300264E73426C8E
:101930004FF40075012462B1012A3AD00268474988
:101940009163816B41F08051816380F834400120C4
:10195000F0BDB0F86820C36E9205120D42EA937292
:101960000A61C26EC2F3C2620A75C26EC2F302623B
:101970004A75C26EC2F342528A75C26EC2F3824287
:10198000CA75C26EC2F3C2320A760A69521C426537
:101990000B7E03F007039B1C9A4042650B7A03F011
:1019A0000F0704FA07F383655B0A5A43C0E917255A
:1019B0000EE090F86820C36E9206920A42EA134243
:1019C0000A610A69521C92024265C0E91652056614
:1019D00030F86C2FC2F3803201F8192F0288C2F35D
:1019E000C6124A70027802F07F028A704268D20FF3
:1019F000CA704268C2F341720A714268C2F38262DD
:101A00004A714268C2F383528A714268C2F34052FB
:101A1000CA710E724268C2F300424A728288C2F3EF
:101A2000C0328A728288C2F38032CA728288C2F35C
:101A300040320A738288C2F300324A738288C2F34A
:101A400081228A738288C2F30122CA730079C0F3AB
:101A5000460008744C740020F0BD0000FF054000F3
:101A600070B504000ED094F83400002518B925771D
:101A7000204600F04FF8032084F83400204600F0A0
:101A80000BF808B1012070BDA5632563012084F81F
:101A90003400002070BD0000FEB50025044676200D
:101AA0000095CDE9015029460B460A46206801F011
:101AB000CEF948BB154E46F8A05F206801F0D9F971
:101AC000012535600220FFF7D3F9204601F036FDED
:101AD00030B100BF84F83450A16B0143A16313E01F
:101AE000204601F0B3FC0028F4D14FF400712068C7
:101AF00001F00AFA002808D0226805499163A16B19
:101B00000143A16384F834500120FEBD00802542CA
:101B1000FF054000F0B587B0044614216846FEF783
:101B2000F9FB1D492068884233D11C480024016814
:101B300041F400610160006800F4006005901748FE
:101B40001438016841F004010160016801F00401EA
:101B50000591016841F0080101600068022500F06C
:101B6000080005904FF4F850CDE9000502AA0326BD
:101B70000C2782E8D00069460948FFF78BF904205A
:101B8000CDE9000502AA694682E8D0000548FFF7C2
:101B900081F907B0F0BD0000002C0140443802403C
:101BA00000080240000C02407047704710B590F8E2
:101BB0003C20012A22D0012280F83C20CA688C688F
:101BC00022F4407222434C6822F4806222430C6863
:101BD00022F4006222430C6922F4805222434C69B1
:101BE00022F400522243C969002322F480420A43AE
:101BF00001684A6480F83C30002010BD022010BD0E
:101C000070B590F83C20012A32D0012480F83C4085
:101C1000022280F83D2003685A689D6822F0700611
:101C20000A6832435A60134B02689A4214D0B2F1E8
:101C3000804F11D0104B9A420ED0104B9A420BD0CD
:101C40000F4B9A4208D00F4B9A4205D00E4B9A4246
:101C500002D00E4B9A4204D1496825F08003194303
:101C6000916080F83D40002180F83C10084670BD2E
:101C7000022070BD00000140000400400008004048
:101C8000000C0040000401400040014000180040EA
:101C900010B5040003D094F83D0010B107E0012016
:101CA00010BD002084F83C00204600F01FF8022000
:101CB00084F83D00211D206801F014FD012084F806
:101CC000460084F83E0084F83F0084F8400084F821
:101CD000410084F8420084F8430084F8440084F80A
:101CE000450084F83D00002010BD000008B50068E4
:101CF0000649884208D10648016841F001010160A7
:101D0000006800F00100009008BD000000000140E4
:101D10004438024090F83D10012901D0012070475D
:101D2000022180F83D100168CA6842F00102CA60D1
:101D300000681149884214D0B0F1804F11D00F498A
:101D400088420ED00E4988420BD00E49884208D0F6
:101D50000D49884205D00D49884202D00C4988427D
:101D600004D1816801F00701062903D0016841F020
:101D700001010160002070470000014000040040A4
:101D800000080040000C00400004014000400140F9
:101D90000018004070B5044690F83C00002501286A
:101DA00017D0012684F83C60022084F83D002068AA
:101DB000826822F0770222F47F428260086850280D
:101DC00038D00DDC20284FD005DC90B3102811D17D
:101DD0004AE0022070BD302846D040280AD13BE0BE
:101DE00060282FD070280DD0B0F5805F03D0B0F5FB
:101DF000005F12D0012584F83D60002084F83C008B
:101E0000284670BDCB68D1E90121206801F0D6FCDD
:101E10002068816841F0770109E0CB68D1E90121B0
:101E2000206801F0CBFC2068816841F4804181602A
:101E3000E1E719E0CA684968206801F093FD502184
:101E4000206806E0CA684968206801F09CFD6021AE
:101E5000206801F0BDFCCEE7CA684968206801F03F
:101E600081FD40212068F4E7226801461046F0E732
:101E700070472DE9F04104460068C66805694FF0D7
:101E80000007A90713D5B10711D5F91E016101207B
:101E90002077206880698007204602D0FFF7E8FF9E
:101EA00004E000F0ABF8204600F03DF92777680722
:101EB00016D5700714D521686FF004000861022060
:101EC00020772068806910F4407F204602D0FFF719
:101ED000CFFF04E000F092F8204600F024F92777C5
:101EE000280715D5300713D521686FF00800086161
:101EF000042020772068C0698007204602D0FFF7C1
:101F0000B7FF04E000F07AF8204600F00CF92777DC
:101F1000E80616D5F00614D521686FF010000861A8
:101F2000082020772068C06910F4407F204602D046
:101F3000FFF79EFF04E000F061F8204600F0F3F8A0
:101F40002777E80708D0F00706D021686FF0010076
:101F50000861204600F0E8F8280608D5300606D5C6
:101F600021686FF0800008612046FFF71DFE6806BB
:101F700008D5700606D521686FF04000086120463C
:101F800000F0DCF8A8060AD5B00608D521686FF085
:101F9000200008612046BDE8F041FFF706BEBDE81D
:101FA000F081000010B586B0044614216846FEF7A3
:101FB000B1F90F492068884217D10E480021026804
:101FC00042F010020260006800F0100005904FF42B
:101FD000D44000900220CDE90101032003900120AC
:101FE000049069460448FEF755FF06B010BD000096
:101FF000000001403038024000100240704770B5C8
:10200000044690F83C0000260D4601280FD0012020
:1020100084F83C006AB1042A1DD0082A2FD00C2A6B
:102020003FD00126002084F83C00304670BD0220DD
:1020300070BD206801F0D4FB2068816941F008017F
:1020400081612068816921F00401816120688169D2
:102050002A69114311E0206801F0F2FB20688169D0
:1020600041F4006181612068816921F480618161AE
:10207000206881692A6941EA02218161D2E72068EA
:1020800001F014FC2068C16941F00801C1612068B9
:10209000C16921F00401C1612068C1692A69114345
:1020A00011E0206801F036FC2068C16941F400614C
:1020B000C1612068C16921F48061C1612068C16982
:1020C0002A6941EA0221C161ACE710B5040003D0DE
:1020D00094F83D0010B107E0012010BD002084F805
:1020E0003C00204600F01EF8022084F83D00211D2F
:1020F000206801F0F7FA012084F8460084F83E00D9
:1021000084F83F0084F8400084F8410084F84200DD
:1021100084F8430084F8440084F8450084F83D00C6
:10212000002010BD7047704700680349884201D104
:10213000FEF7B8BF704700000004014070477047C9
:1021400070470000F8B5016804460868CA684B6922
:1021500010F00F0F4FF0000559D003F0010602F404
:102160009077374365D0C10705D0D10503D5616CA1
:1021700041F001016164410705D5D90703D0616CC5
:1021800041F002016164810705D5D90703D0616C74
:1021900041F004016164010707D502F020013143D9
:1021A00003D0616C41F008016164616C00293AD090
:1021B000800604D5900602D5204603F0F6FD20687F
:1021C0004069616CC0F38010090700D460B32046F9
:1021D00003F0C4FD20684069400621D52068143012
:1021E00050E8001F21F0400140E80012002AF5D11C
:1021F000E06BA8B16E490165E06BFEF726FE002892
:1022000011D0E06B016D01B0BDE8F04008478306D6
:102210000FD593060DD52046BDE8F84003F0C5BDA7
:102220002046FFF78DFFF8BD2046FFF789FF656464
:10223000F8BD266B2023012E7DD1C6067BD5D606A0
:1022400079D508684868009048694FF00206400652
:1022500041D5E16B086840680004000CE8D0A28D0D
:102260008242E5D9E085C869B0F5807F2DD020682D
:102270000C3050E8001F21F4807140E80012002A61
:10228000F5D12068143050E8001F21F0010140E82A
:102290000012002AF5D12068143050E8001F21F008
:1022A000400140E80012002AF5D184F8423025634D
:1022B00020680C3050E8001F21F0100140E80012A7
:1022C000002AF5D1E06BFEF777FD6663A08DE18D06
:1022D000401A81B22AE0A08DE18D401A81B2E08DD2
:1022E0000028A5D00029A3D022680C3252E8000FA4
:1022F00020F4907042E80007002FF5D120681430D8
:1023000050E8002F22F0010240E80027002FF5D10D
:1023100084F84230256320680C3050E8002F22F00A
:10232000100240E80023002BF5D166632046FFF73A
:1023300006FFF8BDFFE705062BD5150629D594F84D
:1023400041002128F5D1A068B0F5805F01D1206956
:10235000B0B1206A411C2162216800784860E08C9D
:10236000401E0004000CE084E3D12068C16821F025
:102370008001C1602068C16841F04001C160D8E7B8
:10238000206A0088C0F308004860206A801C206230
:10239000E5E74006CDD55006CBD5CA68204622F0E9
:1023A0004002CA6084F8413000F0E9F8C1E700005B
:1023B0004D5D000870B5040004D094F8410000257C
:1023C00010B106E0012070BD84F84050204600F0B6
:1023D00023F8242084F841002068C16821F40051CA
:1023E000C160204603F042FD2068016921F490415C
:1023F00001612068416921F02A0141612068C168BA
:1024000041F40051C1606564202084F8410084F8E3
:1024100042006563002070BD2DE9F04186B004469E
:1024200014216846FDF776FF4D4A236800244D4984
:102430000225032607274C48DFF83081934233D129
:10244000484A1432136843F010031360126802F014
:10245000100205920A6842F001020A600A6802F05E
:10246000010205920A6842F002020A60096802AAA3
:1024700001F0020105914115CDE9001582E8D00077
:102480006946FEF707FD8020CDE9000502AA6946EE
:1024900082E8D0004046FEF7FDFC00220521252001
:1024A000FEF792FE252057E02E4ADFF8C4C0103216
:1024B00063451BD1136843F400331360126802F4C0
:1024C000003205920A6842F001020A60096802AB14
:1024D00001F0010105910C21CDE9001583E8D00040
:1024E0006946FEF7D7FC06B0BDE8F081214883427B
:1024F000F9D1106840F480201060106800F480204A
:102500000590086840F002000860086800F00200CA
:102510000590086840F0080008600868694600F007
:1025200008000590D814CDE9000502AB404683E8C9
:10253000D000FEF7AFFC4FF48070CDE9000502AB90
:10254000694683E8D0000C48FEF7A4FC0022052170
:102550002720FEF739FE2720FEF728FEC3E70000FC
:1025600000100140303802400000024000040240E8
:102570000044004000480040000C02407047704793
:10258000FEE7000010B50E4A00210E4803F0D8FE09
:102590000D4C0B4A0021206024320C4803F0D0FE81
:1025A000074A606048320021094803F0C9FE044A26
:1025B000A0606C320021074803F0C2FEE06010BD4D
:1025C000287E0008F135000808000020950D00085D
:1025D0007D0D0008BD2900082DE9F04F87B01421BA
:1025E0006846FDF797FE58480024016841F0100145
:1025F0000160016801F010010591016841F00401DA
:102600000160016801F004010591016841F0800159
:102610000160016801F080010591016841F001014C
:102620000160016801F001010591016841F00201BA
:102630000160016801F002010591016841F00801A3
:1026400001600068DFF8048100F0080005900022B6
:102650000C214046FEF71BFDDFF8F4900022B1216B
:102660004846FEF714FDDFF8ECB0002244F2682182
:102670005846FEF70CFDDFF8E0A04FF4007700228B
:1026800039465046FEF703FD012211025846FEF777
:10269000FEFC7C20CDE90004694630480294FEF738
:1026A000F9FB4EF20300CDE900046946404602946E
:1026B000FEF7F0FB0C2001250226CDE90005CDE94F
:1026C000024669464046FEF7E5FBB120CDE900052C
:1026D000CDE9024669464846FEF7DCFB4020CDE9DD
:1026E0000004694648460294FEF7D4FB44F2683081
:1026F000CDE90005CDE9024669465846FEF7CAFB1A
:1027000000970396CDE9015469465046FEF7C2FB97
:10271000A8028DE8310069465046FEF7BBFB45F242
:102720000800CDE90004694650460294FEF7B2FB6A
:102730001020CDE90004694658460294FEF7AAFB32
:1027400007B0BDE8F08F00003038024000080240BA
:102750000000024000040240000C02400010024051
:1027600010B50E480C490022C0E90012CC1482605A
:10277000C0E9032442618261FFF772F908B1FEF7F4
:1027800019FB21460548FFF713F8002803D0BDE8E0
:102790001040FEF70FBB10BD002C0140C00100200F
:1027A00010B596B000240F941094119412941394C1
:1027B0001C2168461494FDF7ADFD202107A8FDF704
:1027C000A9FD3548334901606321C0E9011440F295
:1027D0004731C0E9031444618461FFF759FA08B135
:1027E000FEF7E8FA4FF480500F900FA92A48FFF740
:1027F000D1FA08B1FEF7DEFA2748FFF766FC08B108
:10280000FEF7D8FA139413A923481494FFF7F8F9A4
:1028100008B1FEF7CFFA6020CDE900040220CDE92F
:10282000020404940594002269461B480694FFF7AD
:10283000E6FB08B1FEF7BEFA042269461648FFF728
:10284000DEFB08B1FEF7B6FA082269461248FFF728
:10285000D6FB08B1FEF7AEFA0C2269460E48FFF728
:10286000CEFB08B1FEF7A6FA0794089409944FF43A
:1028700000500A94CDE90B4007A907480E94FFF7D2
:1028800095F908B1FEF796FA0348FFF78BFB16B0EF
:1028900010BD000000000140440200200C4810B5AB
:1028A0000A4901604FF4E1314160002181600C224E
:1028B000C160C0E904128161C161FFF77BFD00289E
:1028C00003D0BDE81040FEF775BA10BD00100140FE
:1028D0008C0200200C4810B50A4901604FF4E13128
:1028E0004160002181600C22C160C0E90412816155
:1028F000C161FFF75FFD002803D0BDE81040FEF77F
:1029000059BA10BD00440040D40200200C4810B554
:102910000A4901604FF4E1314160002181600C22DD
:10292000C160C0E904128161C161FFF743FD002865
:1029300003D0BDE81040FEF73DBA10BD004800408E
:102940001C030020FEE7FEE770B5044640790D4603
:10295000002817D02079FDF770FE9FED0B1B53EC7C
:10296000112BFDF7FBFD9FED0A1B53EC112BFDF71F
:1029700083FDFDF76FFE01462060284600F00CF84D
:102980000020607170BD0000000000000000594090
:10299000000000000068C040074A126828B10428FF
:1029A00005D0082805D011647047516370479163C2
:1029B0007047D163704700004402002008B505F05D
:1029C0004FF8009003F0E4FA3221684604F0BEFAB2
:1029D000F8E700002DE9F0417B4C4FF0FF382DED7A
:1029E000048B4146206804F0DFFE784F07F1300584
:1029F0009FED778ADFED778A9FED779A774E0128F2
:102A000048D1002210213046FEF741FB0320FEF79B
:102A100069F90020FEF766F91B20FEF763F9EF2045
:102A2000FEF760F90B20FEF75DF9A120FEF75AF9D9
:102A30008D20FEF757F9052004F062FA05F010F832
:102A4000B8615021A5F1180004F080FA02E00120DD
:102A500004F056FA40213046FEF714FB0028F6D168
:102A60004220FEF73FF9FEF79DF800EE100A2860BD
:102A70000023B8EE400A1A46194685ED010A20EEF9
:102A8000080A20EE280A20EE090A85ED020A2068CD
:102A900004F0DEFC052004F033FA4146206804F01F
:102AA00083FE01287ED10320FEF71CF90020FEF7EB
:102AB00019F91B20FEF716F9FE20FEF713F90B207B
:102AC000FEF710F9A120FEF70DF98D20FEF70AF9A7
:102AD000052004F015FA04F0C3FFF8613B485021CB
:102AE0001C3004F033FA02E0012004F009FA40211E
:102AF0003046FEF7C7FA0028F6D14220FEF7F2F87A
:102B0000FEF750F800EE100A28609FED351AB8EE77
:102B1000400A85ED010A20EE080AD5ED020A20EEF2
:102B2000280A20EE090A30EE800AF6EE000A20EEAE
:102B3000200AC0EE010AB7EE000A9FED2A1A70EED5
:102B4000600A9FED290A00EEC10A10EE100AFDF797
:102B50009AFD41EC100B03F029FB9FED241B51EC77
:102B6000100B53EC112BFDF7E0FB9FED221B53ECF8
:102B7000112BFDF7F3FCFDF7B1FD68610320FEF7B3
:102B8000B1F80020FEF7AEF80020FEF7ABF8002009
:102B9000FEF7A8F80B20FEF7A5F82120FEF7A2F813
:102BA0008D2000E00BE0FEF79DF820680023BDECCF
:102BB000048B1A461946BDE8F04104F049BCBDEC4F
:102BC000048BBDE8F081000000000020C800002058
:102BD0000000003D00B01F460000803300000240AE
:102BE0000000C8427F051BB6662280370000004007
:102BF000260270BF000000E0AF60B3BE2DE9F041D7
:102C0000794C4FF0FF382DED048B4146206804F0DD
:102C1000CBFD764F07F130059FED758ADFED758AA4
:102C20009FED759A754E012848D10022402130460B
:102C3000FEF72DFA0320FEF77BF80020FEF778F868
:102C40001B20FEF775F8EF20FEF772F80B20FEF759
:102C50006FF8A120FEF76CF88D20FEF769F80520CB
:102C600004F04EF904F0FCFEB8615021A5F1180003
:102C700004F06CF902E0012004F042F91021304622
:102C8000FEF700FA0028F6D14220FEF751F8FDF7D2
:102C9000AFFF00EE100A28600023B8EE400A1A4683
:102CA000194685ED010A20EE080A20EE280A20EEDA
:102CB000090A85ED020A206804F0CAFB4146206833
:102CC00004F072FD01287DD10320FEF731F80020C9
:102CD000FEF72EF81B20FEF72BF8FE20FEF728F853
:102CE0000B20FEF725F8A120FEF722F88D20FEF735
:102CF0001FF8052004F004F904F0B2FEF8613B4827
:102D000050211C3004F022F902E0012004F0F8F810
:102D100010213046FEF7B6F90028F6D14220FEF722
:102D200007F8FDF765FF00EE100A28609FED341AE2
:102D3000B8EE400A85ED010A20EE080AD5ED020A38
:102D400020EE280A20EE090A30EE800AF6EE000A8C
:102D500020EE200AC0EE010AB7EE000A9FED291A04
:102D600070EE600A9FED280A00EEC10A10EE100A0C
:102D7000FDF789FC41EC100B03F018FA9FED231BC3
:102D800051EC100B53EC112BFDF7CFFA9FED211BEB
:102D900053EC112BFDF7E2FBFDF7A0FC686103206B
:102DA000FDF7C6FF0020FDF7C3FF0020FDF7C0FFC1
:102DB0000020FDF7BDFF0B20FDF7BAFF2120FDF736
:102DC000B7FF00E00CE08D20FDF7B2FF2068002384
:102DD000BDEC048B1A461946BDE8F04104F038BB3F
:102DE000BDEC048BBDE8F081040000204001002010
:102DF0000000003D00B01F46000080330004024088
:102E00000000C8427F051BB66622803700000040E4
:102E1000260270BF000000E0AF60B3BE0A684262E5
:102E20004A688262D1E902231A43D1E904310B4393
:102E3000C16A1A4321F0F7011143C16200207047B3
:102E4000006800F00300704708444069704770B59F
:102E50000DF1100C11439CE87000234319432943E2
:102E60004268314347F6FF639A430A4342600020B9
:102E700070BD0321016000207047D0F880007047CA
:102E80000A688260D1E901231A43D1E903310B4377
:102E9000C1681A436FF30B011143C16000207047F2
:102EA00010B585B004463720CDE9001040200290CF
:102EB000002003904FF48060049069462046FFF79D
:102EC000DFFF41F288323721204600F005F905B0D6
:102ED00010BD000010B504460A4885B00143292002
:102EE000CDE9001040200290002003904FF4806054
:102EF000049069462046FFF7C3FF204600F0A4F97E
:102F000005B010BD0000108010B585B0044610203B
:102F1000CDE9001040200290002003904FF4806023
:102F2000049069462046FFF7ABFF41F2883210213A
:102F3000204600F0D1F805B010BD10B585B00446AC
:102F40000620CDE9001040200290002003904FF4AD
:102F50008060049069462046FFF792FF41F2883274
:102F60000621204600F0B8F805B010BD30B585B098
:102F700000240546009401944FF480600294CDE94A
:102F8000034069462846FFF77BFF0B484FF4FA5190
:102F90000068B0FBF1F041F288314843401E03D293
:102FA0004FF0004005B030BD696B0906F6D5C5206D
:102FB000A8632046F6E700002400002010B585B085
:102FC00004464FF4D57000900820019040200290F4
:102FD000002003904FF48060049069462046FFF77C
:102FE0004FFF204600F096F905B010BD10B585B032
:102FF00004460720CDE900204020029000200390E5
:103000004FF48060049069462046FFF739FF41F293
:1030100088320721204600F05FF805B010BD10B5DA
:1030200085B0044600210220CDE90010C020CDE982
:1030300002014FF48060049069462046FFF720FFAC
:10304000204600F0D9F805B010BD10B585B0044693
:103050000920CDE90010C0200290002003904FF419
:103060008060049069462046FFF70AFF204600F082
:10307000C3F805B010BD10B585B00446002133205B
:10308000CDE900104020CDE902010001049069461D
:103090002046FFF7F5FE41F288323321204600F04A
:1030A0001BF805B010BD30B585B00C4605460021B3
:1030B0000320CDE900104020CDE902010001049079
:1030C00069462846FFF7DCFE22460321284600F029
:1030D000DDF805B030BD0000454B10B51B684FF45E
:1030E000FA54B3FBF4F353435B1E02D24FF000409B
:1030F00010BD426B12F0450FF6D01205F4D4426BAE
:10310000520703D504218163084610BD426BD207E4
:1031100002D00121816305E0C52282630269D2B237
:103120008A4201D0012010BD0021FFF78DFE3149F8
:10313000084201D1002010BD002802DA4FF00070D3
:1031400010BD410001D5402010BD810001D5802077
:1031500010BDC10002D54FF4807010BD010102D531
:103160004FF4007010BD410102D54FF4806010BDD6
:10317000C10102D54FF4006010BD010202D54FF429
:10318000805010BD410202D54FF4005010BD8102A5
:1031900002D54FF4804010BDC10202D54FF400406B
:1031A00010BD410302D54FF4003010BD810302D59C
:1031B0004FF4802010BDC10302D54FF4002010BD94
:1031C000010402D54FF4801010BD410402D54FF424
:1031D000001010BD810402D54FF4800010BD00071F
:1031E00002D54FF4000010BD4FF4803010BD000038
:1031F0002400002008E0FFFD12494FF4FA5209684C
:10320000B1FBF2F141F288325143491E02D24FF034
:1032100000407047426B12F0450FF6D01205F4D40F
:10322000416B490703D50421816308467047416B10
:10323000C90703D00121816308467047C521816316
:1032400000207047240000200F494FF4FA5209680B
:10325000B1FBF2F141F288325143491E02D24FF0E4
:1032600000407047426B12F0450FF6D01205F4D4BF
:10327000416B490703D50421816308467047C52186
:1032800081630020704700002400002030B5204BEF
:103290004FF4FA541B68B3FBF4F341F288346343F0
:1032A0005B1E02D24FF0004030BD446B14F0450F5E
:1032B000F6D02405F4D4436B5B0703D50421816366
:1032C000084630BD436BDB0702D00121816303E078
:1032D0000369DBB28B4201D0012030BDC52181637F
:1032E0000021FFF7B1FD10F4604F04D0410406D572
:1032F0004FF4005030BD000C1080002030BD0004A1
:1033000002D54FF4805030BD4FF4803030BD000006
:103310002400002014494FF4FA520968B1FBF2F17D
:1033200041F288325143491E02D24FF000407047AB
:10333000426B12F0450FF6D01205F4D4416B4907E9
:1033400003D50421816308467047416BC90703D048
:103350000121816308467047416B490601D5402130
:103360008163002070470000240000202DE9F04711
:1033700088B00D460446FDF78FFE00268246009673
:103380000196374608212068FFF7BEFD00282CD1A2
:10339000B4F8500001042068FFF782FD002824D112
:1033A000401E4FF00808CDE9020830204FF0020916
:1033B000CDE904090120CDE9067002A92068FFF7D4
:1033C0002DFD2068FFF757FE00280ED16F462068BC
:1033D000416B11F02A0F0BD0416B090702D4416BEE
:1033E00089051AD5C0F83880082008B0BDE8F087F4
:1033F000416B890205D5FFF740FD47F82600761C92
:1034000002E0416B8904E7D5FDF746FEA0EB0A0018
:10341000401CDCD14FF00040E7E7416B890703D542
:10342000C0F838900220E0E7416B890603D52021DF
:1034300081630846D9E740F23A518163019800BAA6
:103440002860009800BA68600020CEE710B590B000
:1034500004460120ADF838002068FFF7F1FC002891
:1034600054D0606C032842D02068FFF7D8FD0028B4
:103470004AD100212068FFF7E7FC6067042120683B
:10348000FFF7E2FCA06708212068FFF7DDFCE0679A
:103490000C212068FFF7D8FCC4F88000606C03287A
:1034A00025D00EA92068FFF7FEFD00282CD1606C06
:1034B00003281CD0BDF83800206501042068FFF700
:1034C000C4FD002820D100212068FFF7BDFC606604
:1034D00004212068FFF7B8FCA06608212068FFF7E8
:1034E000B3FCE0660C212068FFF7AEFC20670421E6
:1034F0002068FFF7A9FC000DE06403A92046FEF751
:10350000E3F930B14FF0805010B010BD4FF0806043
:10351000FAE7B4F85000002302042068FFF766FDC4
:103520000028F1D104F1100007C88DE8070094E8E5
:103530000F00FFF78CFC0020E6E700002DE9F84FB4
:103540000026044600963546B0460068FFF70EFD9B
:10355000002827D12068FFF731FD4FF0805B4FF046
:1035600001094FF6FF7748B1A6642068FFF7FEFC1B
:10357000002817D1A06C012802D020E0C4F84890A0
:1035800000212068FFF78CFC58B918E00021206862
:10359000FFF786FC002805D151462068FFF79AFC0A
:1035A00010B15846BDE8F88F00212068FFF74CFCA9
:1035B00005464FEAD0780098401C009002E0DFF802
:1035C0002CA00098B84202D2B8F1000FDED00098CB
:1035D000B84202D34FF08070E4E7680002D5C4F827
:1035E000449000E066640020DCE70000000010C1A9
:1035F00003A002F0C3FD012002F066FEFBE700001D
:10360000537461727444656661756C745461736B54
:103610000D0A000010B54FF0E020006904F012FA26
:10362000012803D0BDE8104003F058BE10BD0000D3
:1036300030B593B030216846FCF76CFE14210CA81D
:10364000FCF768FE1E480025016841F080510160CA
:10365000006800F0805011901A48016841F48041E0
:1036600001600068022400F4804011900120009065
:10367000000401908001CDE90640192008904FF424
:10368000A870CDE9090407200B906846FDF7DAFE23
:1036900008B172B6FEE70CA90F2081E831004FF4A3
:1036A000A0500F904FF48050109005210CA8FDF70A
:1036B000BDFD002801D072B6FEE713B030BD00009A
:1036C00040380240007000400248016841F4700137
:1036D0000160704788ED00E00148FEF7CABB0000BA
:1036E00064030020F0B50268294C2A4D2A4E2B4F66
:1036F0002B4B4FF0804CA04209D0604507D0A84228
:1037000005D0B04203D0B84201D0984204D122F093
:10371000700E4A6842EA0E02A0421BD0604519D0E2
:10372000A84217D0B04215D0B84213D0984211D059
:103730001C4DA8420ED01C4DA8420BD01B4DA842D8
:1037400008D01B4DA84205D01A4DA84202D01A4DF0
:10375000A84203D122F44075CA682A434D6922F079
:1037600080022A4302608A68C2620A688262A042BA
:1037700001D0984201D109690163012141610169C8
:10378000C90703D0016921F001010161F0BD00000A
:10379000000001400004004000080040000C004010
:1037A0000004014000400140004401400048014045
:1037B00000180040001C00400020004010B5846844
:1037C00042EA032224F47F440A432243826010BD6C
:1037D000826822F070020A4342F00701816070475C
:1037E000F0B5036A026A22F001020262426884694B
:1037F000124E24F073050C682C4323F002058B68ED
:103800002B430D4DA84201D0B04205D123F008074B
:10381000CB683B4323F00403A84201D0B04205D15A
:103820004D6922F4407215438A692A4342608461DB
:10383000496841630362F0BD00000140000401409B
:10384000F0B5026A036A23F01003036243688469D7
:103850000D6824F4E64444EA05248D6822F0200231
:1038600042EA05120F4D104EA84201D0B04206D1D7
:10387000CF6822F0800242EA071222F04002A842FA
:1038800001D0B04207D14D6923F4406343EA850378
:103890008D6943EA850343608461496881630262FC
:1038A000F0BD00000000014000040140F0B5026AD4
:1038B000036A23F4807303624368C46922F40072CC
:1038C00024F073050C68124E2C438D6842EA0522E1
:1038D0000E4DA84201D0B04206D1CF6822F400625A
:1038E00042EA072222F48062A84201D0B04207D106
:1038F0004D6923F4405343EA05138D6943EA0513E8
:103900004360C4614968C1630262F0BD00000140C8
:103910000004014030B5046A026A22F48052026257
:103920004268C3690D6823F4E64343EA05238D68C2
:1039300024F4005444EA0534084DA84202D0084D4E
:10394000A84204D14D6922F4804242EA85124260C5
:10395000C36149680164046230BD00000000014099
:103960000004014010B5036A046A24F001040462F3
:10397000846924F0F00444EA021423F00A020A43A2
:103980008461026210BD10B5036A046A24F0100459
:103990000462846923F0A00324F4704444EA0232F0
:1039A00043EA01118261016210BD000070B5FD4E55
:1039B0004FF0FF312DED108B9EB0306803F0F4FE18
:1039C00001287DD1F84D002210212846FDF75FFB2C
:1039D0000920FDF787F98020FDF784F94320FDF7E2
:1039E00081F9052003F08CFA04F03AF8EF4C5021ED
:1039F000606104F1140003F0A9FA02E0012003F071
:103A00007FFA40212846FDF73DFB0028F6D14220F1
:103A1000FDF768F9FDF7C6F800EE100AE060B8EEB1
:103A2000400A84ED040ADFEDE20A30EE600A10EE8F
:103A3000100AFCF728FE9FEDDF1B53EC112BFCF75F
:103A40001BFD9FEDDE1B53EC112BFCF715FDD74D35
:103A50003035C5E90801C5E90A010920FDF742F939
:103A60000020FDF73FF94320FDF73CF995ED058A6D
:103A700018EE100AB5EEC08AF1EE10FA7EDBFCF704
:103A800002FE41EC1F0B18EE100AFCF7FCFD41ECA6
:103A90001E0B18EE100AFCF7F6FD41EC1D0B18EE9C
:103AA000100AFCF7F0FD41EC1C0B18EE100AFCF7B5
:103AB000EAFD41EC1B0B18EE100AFCF7E4FD00E0F8
:103AC000F7E341EC1A0B18EE100AFCF7DCFD41ECB1
:103AD000190B18EE100AFCF7D6FD9FEDBA1B53EC3C
:103AE000112BFCF7C9FC53EC192BFCF7C5FC53EC6C
:103AF0001A2BFCF7C1FC53EC1B2BFCF7BDFC53EC61
:103B00001C2BFCF7B9FC53EC1D2BFCF7B5FC53EC5C
:103B10001E2BFCF7B1FC53EC1F2BFCF7ADFC41EC6A
:103B20001F0B18EE100AFCF7AEFD41EC1E0B18EE51
:103B3000100AFCF7A8FD41EC1D0B18EE100AFCF76B
:103B4000A2FD41EC1C0B18EE100AFCF79CFD41ECA9
:103B50001B0B18EE100AFCF796FD41EC1A0B18EE41
:103B6000100AFCF790FD41EC190B18EE100AFCF757
:103B70008AFD9FED961B53EC112B00E042E1FCF710
:103B80007BFC53EC192BFCF777FC53EC1A2BFCF75E
:103B900073FC53EC1B2BFCF76FFC53EC1C2BFCF75A
:103BA0006BFC53EC1D2BFCF767FC53EC1E2BFCF756
:103BB00063FC41EC1E0B18EE100AFCF764FD41ECAF
:103BC0001D0B18EE100AFCF75EFD41EC1C0B18EE05
:103BD000100AFCF758FD41EC1B0B18EE100AFCF71D
:103BE00052FD41EC1A0B18EE100AFCF74CFD41ECAB
:103BF000190B18EE100AFCF746FD9FED761B53ECEF
:103C0000112BFCF739FC53EC192BFCF735FC53EC6A
:103C10001A2BFCF731FC53EC1B2BFCF72DFC53EC5F
:103C20001C2BFCF729FC53EC1D2BFCF725FC41EC6D
:103C30001D0B18EE100AFCF726FD41EC1C0B18EECC
:103C4000100AFCF720FD41EC1B0B18EE100AFCF7E4
:103C50001AFD41EC1A0B18EE100AFCF714FD41ECAA
:103C6000190B18EE100AFCF70EFD9FED5C1B53ECD0
:103C7000112BFCF701FC53EC192BFCF7FDFB53EC6B
:103C80001A2BFCF7F9FB53EC1B2BFCF7F5FB53EC61
:103C90001C2BFCF7F1FB41EC1C0B18EE100AFCF797
:103CA000F2FC41EC1B0B18EE100AFCF7ECFC41ECAB
:103CB0001A0B18EE100AFCF7E6FC41EC190B18EE93
:103CC000100AFCF7E0FC9FED471B53EC112BFCF7AF
:103CD000D3FB53EC192BFCF7CFFB53EC1A2BFCF75F
:103CE000CBFB53EC1B2BFCF7C7FB41EC1B0B18EE7B
:103CF000100AFCF7C8FC41EC1A0B18EE100AFCF78E
:103D0000C2FC41EC190B18EE100AFCF7BCFC9FED4D
:103D1000371B53EC112BFCF7AFFB53EC192BFCF7C3
:103D2000ABFB53EC1A2BFCF7A7FB41EC190B18EE7D
:103D3000100AFCF7A8FC41EC1A0B18EE100AFCF76D
:103D4000A2FC9FED2C1B53EC112BFCF795FB53ECC5
:103D50001A2BFCF791FB41EC1A0B18EE100AFCF73A
:103D600092FC9FED261B53EC112BFCF785FB53ECCB
:103D70001A2BFCF7DAFA53EC192BFCF7D6FA53ECB2
:103D80001B2BFCF7D2FA53EC1C2BFCF7CEFA53ECAE
:103D90001D2BFCF7CAFA53EC1E2BFCF7C6FA53ECAA
:103DA0001F2BFCE30000002000000240C8000020A0
:103DB0000000004B000000000088A340000000004D
:103DC0000000103EFF891BF5C1E6CBB9AD223F27AD
:103DD00089378A3C3EF9BCD4045921BDC5FD2C90DD
:103DE000B12EA83D0CAB168CF5CB22BE0B738EDE2C
:103DF0005FAC8B3ED059593D6874013FD8093BB345
:103E0000CAD6A33FFCF73FFC41EC100B18EE100A9A
:103E10008DED160BFCF737FC41EC1F0B18EE100A6A
:103E2000FCF731FC41EC1E0B18EE100AFCF72BFCE2
:103E300041EC1D0B18EE100AFCF725FC41EC1C0BA5
:103E400018EE100AFCF71FFC41EC100B18EE100ADC
:103E50008DED0E0BFCF717FC41EC100B18EE100A61
:103E60008DED0C0BFCF70FFC41EC100B18EE100A5B
:103E70008DED040BFCF707FC41EC100B18EE100A5B
:103E80008DED0A0BFCF7FFFB41EC1B0B18EE100A43
:103E9000FCF7F9FB41EC100B18EE100A8DED180B36
:103EA000FCF7F1FB41EC1A0B18EE100AFCF7EBFBE8
:103EB00041EC190B18EE100AFCF7E5FB9FEDFD1B1A
:103EC00053EC112BFCF7D8FA53EC192BFCF7D4FA6E
:103ED00053EC1A2BFCF7D0FA9DED180B53EC102B7A
:103EE000FCF7CAFA53EC1B2BFCF7C6FA9DED0A0B44
:103EF00053EC102BFCF7C0FA9DED040B53EC102B88
:103F0000FCF7BAFA9DED0C0B53EC102BFCF7B4FA4E
:103F10009DED0E0B53EC102BFCF7AEFA53EC1C2B63
:103F2000FCF7AAFA53EC1D2BFCF7A6FA53EC1E2B58
:103F3000FCF7A2FA53EC1F2BFCF79EFA9DED160B33
:103F400053EC102BFCF798FA41EC100B18EE100A0A
:103F50008DED0E0BFCF797FB41EC1C0B18EE100AD5
:103F6000FCF791FB41EC1D0B18EE100AFCF78BFBE4
:103F700041EC1E0B18EE100AFCF785FB41EC1A0B06
:103F800018EE100AFCF77FFB41EC100B18EE100A3C
:103F90008DED100BFCF777FB41EC100B18EE100ABF
:103FA0008DED180BFCF76FFB41EC100B18EE100AAF
:103FB0008DED0C0BFCF767FB41EC190B18EE100AAA
:103FC000FCF761FB41EC1B0B18EE100AFCF75BFBE6
:103FD00041EC100B18EE100A8DED040BFCF753FBAF
:103FE00041EC1F0B18EE100AFCF74DFB41EC100BD7
:103FF00018EE100A8DED080BFCF745FB9FEDAF1B8B
:1040000053EC112BFCF738FA9DED080B53EC102BF9
:10401000FCF732FA53EC1F2BFCF72EFA9DED040B44
:1040200053EC102BFCF728FA53EC1B2BFCF724FA6B
:1040300053EC192BFCF720FA9DED0C0B53EC102BD5
:10404000FCF71AFA9DED180B53EC102BFCF714FA41
:104050009DED100B53EC102BFCF70EFA53EC1A2BC2
:10406000FCF70AFA53EC1E2BFCF706FA53EC1D2B57
:10407000FCF702FA53EC1C2BFCF7FEF941EC100B99
:1040800018EE100A8DED160BFCF7FDFA41EC100B43
:1040900018EE100A8DED040BFCF7F5FA41EC100B4D
:1040A00018EE100A8DED140BFCF7EDFA41EC100B35
:1040B00018EE100A8DED120BFCF7E5FA41EC100B2F
:1040C00018EE100A8DED060BFCF7DDFA41EC1F0B24
:1040D00018EE100AFCF7D7FA41EC1E0B18EE100A86
:1040E000FCF7D1FA41EC1D0B18EE100AFCF7CBFAE5
:1040F00041EC1C0B18EE100AFCF7C5FA41EC1B0B47
:1041000018EE100AFCF7BFFA41EC1A0B18EE100A71
:10411000FCF7B9FA41EC190B18EE100AFCF7B3FAE8
:104120009FED681B53EC112BFCF7A6F953EC192BF0
:10413000FCF7A2F953EC1A2BFCF79EF953EC1B2B5E
:10414000FCF79AF953EC1C2BFCF796F953EC1D2B5A
:10415000FCF792F953EC1E2BFCF78EF953EC1F2B56
:10416000FCF78AF99DED060B53EC102BFCF784F954
:104170009DED120B53EC102BFCF77EF99DED140B0B
:1041800053EC102BFCF778F99DED040B53EC102B3E
:10419000FCF772F941EC100B18EE100A8DED140BC0
:1041A000FCF771FA41EC1F0B18EE100AFCF76BFAE2
:1041B00041EC1E0B18EE100AFCF765FA41EC100BEF
:1041C00018EE100A8DED060BFCF75DFA41EC1D0BA5
:1041D00018EE100AFCF757FA41EC100B18EE100A13
:1041E0008DED180BFCF74FFA41EC1C0B18EE100A82
:1041F000FCF749FA41EC100B18EE100A8DED100B8C
:10420000FCF741FA41EC1B0B18EE100AFCF73BFAE5
:1042100041EC1A0B18EE100AFCF735FA41EC190BB9
:1042200018EE100AFCF72FFA9FED281B53EC112B08
:10423000FCF722F953EC192BFCF71EF953EC1A2B5F
:10424000FCF71AF953EC1B2BFCF716F99DED100B3C
:1042500053EC102BFCF710F953EC1C2BFCF70CF96A
:104260009DED180B53EC102BFCF706F953EC1D2BAE
:10427000FCF702F99DED060B53EC102BFCF7FCF854
:1042800053EC1E2BFCF7F8F853EC1F2BFCF7F4F85B
:1042900041EC100B18EE100A8DED120BFCF7F3F940
:1042A00041EC100B18EE100A8DED1A0BFCF7EBF930
:1042B00010E0FCE393937886332FB039F7D851019F
:1042C000F89E5B3A207FFC2EB1E1F43A7F8B189880
:1042D0009D6C823B41EC100B18EE100A8DED060B25
:1042E000FCF7D1F941EC1F0B18EE100AFCF7CBF9E3
:1042F00041EC1E0B18EE100AFCF7C5F941EC1D0B42
:1043000018EE100AFCF7BFF941EC1C0B18EE100A6E
:10431000FCF7B9F941EC1B0B18EE100AFCF7B3F9E6
:1043200041EC1A0B18EE100AFCF7ADF941EC190B31
:1043300018EE100AFCF7A7F99FEDFE1B53EC112BAA
:10434000FCF79AF853EC192BFCF796F853EC1A2B60
:10435000FCF792F853EC1B2BFCF78EF853EC1C2B5C
:10436000FCF78AF853EC1D2BFCF786F853EC1E2B58
:10437000FCF782F853EC1F2BFCF77EF89DED060B43
:1043800053EC102BFCF778F89DED1A0B53EC102B27
:10439000FCF772F841EC100B18EE100A8DED040BCF
:1043A000FCF771F941EC1F0B18EE100AFCF76BF9E2
:1043B00041EC1E0B18EE100AFCF765F941EC1D0BE1
:1043C00018EE100AFCF75FF941EC100B18EE100A1A
:1043D0008DED0C0BFCF757F941EC1C0B18EE100A95
:1043E000FCF751F941EC1B0B18EE100AFCF74BF9E6
:1043F00041EC1A0B18EE100AFCF745F941EC190BC9
:1044000018EE100AFCF73FF99FEDCC1B53EC112B73
:10441000FCF732F853EC192BFCF72EF853EC1A2B5F
:10442000FCF72AF853EC1B2BFCF726F853EC1C2B5B
:10443000FCF722F89DED0C0B53EC102BFCF71CF84D
:1044400053EC1D2BFCF718F853EC1E2BFCF714F85B
:1044500053EC1F2BFCF710F841EC100B18EE100A70
:104460008DED100BFCF70FF941EC1F0B18EE100A45
:10447000FCF709F941EC1E0B18EE100AFCF703F9E2
:1044800041EC1D0B18EE100AFCF7FDF841EC1C0B7B
:1044900018EE100AFCF7F7F841EC1B0B18EE100AA7
:1044A000FCF7F1F841EC1A0B18EE100AFCF7EBF8E8
:1044B00041EC190B18EE100AFCF7E5F89FEDA11B73
:1044C00053EC112BFBF7D8FF53EC192BFBF7D4FF60
:1044D00053EC1A2BFBF7D0FF53EC1B2BFBF7CCFF55
:1044E00053EC1C2BFBF7C8FF53EC1D2BFBF7C4FF51
:1044F00053EC1E2BFBF7C0FF53EC1F2BFBF7BCFF4D
:1045000041EC1F0B18EE100AFCF7BDF841EC1E0B36
:1045100018EE100AFCF7B7F841EC1D0B18EE100A64
:10452000FCF7B1F841EC1C0B18EE100AFCF7ABF8E5
:1045300041EC1B0B18EE100AFCF7A5F841EC1A0B26
:1045400018EE100AFCF79FF841EC190B18EE100A50
:10455000FCF799F89FED7D1B53EC112BFBF78CFFBB
:1045600053EC192BFBF788FF53EC1A2BFBF784FF56
:1045700053EC1B2BFBF780FF53EC1C2BFBF77CFF52
:1045800053EC1D2BFBF778FF53EC1E2BFBF774FF4E
:1045900041EC1E0B18EE100AFCF775F800E03BE149
:1045A00041EC1D0B18EE100AFCF76DF841EC1C0BEA
:1045B00018EE100AFCF767F841EC1B0B18EE100A16
:1045C000FCF761F841EC1A0B18EE100AFCF75BF8E7
:1045D00041EC190B18EE100AFCF755F89FED5D1B26
:1045E00053EC112BFBF748FF53EC192BFBF744FF5F
:1045F00053EC1A2BFBF740FF53EC1B2BFBF73CFF54
:1046000053EC1C2BFBF738FF53EC1D2BFBF734FF4F
:1046100041EC1D0B18EE100AFCF735F841EC1A0BB3
:1046200018EE100AFCF72FF841EC1B0B18EE100ADD
:10463000FCF729F841EC190B18EE100AFCF723F8E7
:1046400041EC1C0B18EE100AFCF71DF89FED431B04
:1046500053EC112BFBF710FF53EC1C2BFBF70CFF5B
:1046600053EC192BFBF708FF53EC1B2BFBF704FF54
:1046700053EC1A2BFBF700FF41EC1C0B18EE100A51
:10468000FCF701F841EC1B0B18EE100AFBF7FBFFDF
:1046900041EC1A0B18EE100AFBF7F5FF41EC190B71
:1046A00018EE100AFBF7EFFF9FED2E1B53EC112BBA
:1046B000FBF7E2FE53EC192BFBF7DEFE53EC1A2B53
:1046C000FBF7DAFE53EC1B2BFBF7D6FE41EC1B0B82
:1046D00018EE100AFBF7D7FF41EC1A0B18EE100A80
:1046E000FBF7D1FF41EC190B18EE100AFBF7CBFFDB
:1046F0009FED1E1B53EC112BFBF7BEFE53EC192B49
:10470000FBF7BAFE53EC1A2BFBF7B6FE41EC1A0B83
:1047100018EE100AFBF7B7FF41EC190B18EE100A60
:10472000FBF7B1FF9FED131B53EC112BFBF7A4FE1E
:1047300024E00000550B03AC1908053C486DF0B8A7
:104740009443803C093465920C56F13C31500A6028
:104750000062593DD603A5D8BBE7B83D9D45A9C128
:104760009FF80E3EE681EE309F82553E94A9385B5D
:104770005BCB7F3EE17F9433AD2B073F53EC192B8E
:10478000FBF77AFE41EC190B18EE100AFBF77BFFE2
:104790009FEDDC1B53EC112BFBF76EFE53EC192B3A
:1047A000FBF7C3FD53EC1A2BFBF7BFFD53EC1B2BA0
:1047B000FBF7BBFD53EC1C2BFBF7B7FD53EC1D2B9C
:1047C000FBF7B3FD53EC1E2BFBF7AFFD53EC1F2B98
:1047D000FBF7ABFD9DED100B53EC102BFBF7A5FD8C
:1047E0009DED040B53EC102BFBF79FFD9DED120B81
:1047F00053EC102BFBF799FD9DED140B53EC102B94
:10480000FBF793FD9DED160B53EC102BFBF78DFD85
:104810009DED0E0B53EC102BFBF787FDC4E908014F
:1048200095ED080B94ED081B51EC100B53EC112B7C
:10483000FBF77BFD41EC100B85ED080B9FEDB31BE7
:1048400053EC112BFBF732FF95ED088B7ED29FEDD9
:10485000B10B51EC180B53EC102BFBF70DFE53EC86
:10486000182BFBF709FE53EC182BFBF705FE53EC56
:10487000182BFBF701FE53EC182BFBF7FDFD53EC57
:10488000182BFBF7F9FD53EC182BFBF7F5FD41EC6A
:104890001D0B9FEDA20B51EC180B53EC102BFBF7EB
:1048A000EBFD53EC182BFBF7E7FD53EC182BFBF754
:1048B000E3FD53EC182BFBF7DFFD53EC182BFBF754
:1048C000DBFD53EC182BFBF7D7FD41EC1C0B9FEDE8
:1048D000950B51EC180B53EC102BFBF7CDFD53EC63
:1048E000182BFBF7C9FD53EC182BFBF7C5FD53EC58
:1048F000182BFBF7C1FD53EC182BFBF7BDFD41EC6A
:104900001B0B9FED8A0B51EC180B53EC102BFBF794
:10491000B3FD53EC182BFBF7AFFD53EC182BFBF753
:10492000ABFD53EC182BFBF7A7FD41EC1A0B9FEDE9
:10493000810B51EC180B53EC102BFBF79DFD53EC46
:10494000182BFBF799FD53EC182B00E032E0FBF736
:1049500093FD41EC190B9FED790B51EC180B53ECC7
:10496000102BFBF789FD53EC182BFBF785FD41EC71
:104970001E0B9FED740B51EC180B53EC102BFBF737
:104980007BFD53EC1E2BFBF7D0FC53EC192BFBF7F4
:10499000CCFC53EC1A2BFBF7C8FC53EC1B2BFBF79E
:1049A000C4FC53EC1C2BFBF7C0FC41EC100B53EC8C
:1049B0001D2B8BE09FED650B51EC180B53EC102B6E
:1049C000FBF75AFD53EC182BFBF756FD53EC182B55
:1049D000FBF752FD53EC182BFBF74EFD53EC182B55
:1049E000FBF74AFD53EC182BFBF746FD41EC1C0B83
:1049F0009FED580B51EC180B53EC102BFBF73CFDC3
:104A000053EC182BFBF738FD53EC182BFBF734FD58
:104A100053EC182BFBF730FD53EC182BFBF72CFD58
:104A200041EC1B0B9FED4D0B51EC180B53EC102B75
:104A3000FBF722FD53EC182BFBF71EFD53EC182B54
:104A4000FBF71AFD53EC182BFBF716FD41EC1A0B84
:104A50009FED440B51EC180B53EC102BFBF70CFDA6
:104A600053EC182BFBF708FD53EC182BFBF704FD58
:104A70009FED3E0B41EC190B53EC102B51EC180B36
:104A8000FBF7FAFC53EC182BFBF7F6FC9FED390B08
:104A900041EC1D0B53EC102B51EC180BFBF7ECFC0D
:104AA00053EC1D2BFBF741FC53EC192B00E025E0E8
:104AB000FBF73BFC53EC1A2BFBF737FC53EC1B2B9F
:104AC000FBF733FC53EC1C2B41EC100B51EC100B9F
:104AD000FBF72BFCC4E90A0194ED0A0B51EC100B17
:104AE000FBF7FCFDA86130681EB00023BDEC108B05
:104AF0001A461946BDE8704002F0AABC1EB0BDECD3
:104B0000108B70BDD8093BB3CAD6A33F000000008C
:104B1000000000004ACAED806AC1543F0100607283
:104B20002CBA943FC3A820169C07C13F6F697740F9
:104B3000C037DB3F201064143649E93F1D1693CC83
:104B40002449CBBFF59F353FFEF2394092A88475CA
:104B50000079A8BE5F6A5B74AEB50F3F9EEC360D60
:104B600029BD61BFCDE5696DD8BEA73FD3D7987C7D
:104B70005854E8BF21B0726891ED394070B5FD4ED0
:104B80004FF0FF312DED108B9EB0306802F00CFE1F
:104B900001287DD1F84D002240212846FCF777FA04
:104BA0000920FCF7C5F88020FCF7C2F80120FCF7CB
:104BB000BFF8052002F0A4F902F052FFEF4C50219B
:104BC000606104F1140002F0C1F902E0012002F07A
:104BD00097F910212846FCF755FA0028F6D1422013
:104BE000FCF7A6F8FCF704F800EE100AE060B8EE57
:104BF000400A84ED040ADFEDE20A30EE600A10EEAE
:104C0000100AFBF740FD9FEDDF1B53EC112BFBF768
:104C100033FC9FEDDE1B53EC112BFBF72DFCD74D26
:104C20003035C5E90801C5E90A010920FCF780F81B
:104C30000020FCF77DF80120FCF77AF895ED058A55
:104C400018EE100AB5EEC08AF1EE10FA7EDBFBF723
:104C50001AFD41EC1F0B18EE100AFBF714FD41EC96
:104C60001E0B18EE100AFBF70EFD41EC1D0B18EEA3
:104C7000100AFBF708FD41EC1C0B18EE100AFBF7BD
:104C800002FD41EC1B0B18EE100AFBF7FCFC00E0E8
:104C9000F7E341EC1A0B18EE100AFBF7F4FC41ECB9
:104CA000190B18EE100AFBF7EEFC9FEDBA1B53EC44
:104CB000112BFBF7E1FB53EC192BFBF7DDFB53EC5E
:104CC0001A2BFBF7D9FB53EC1B2BFBF7D5FB53EC53
:104CD0001C2BFBF7D1FB53EC1D2BFBF7CDFB53EC4F
:104CE0001E2BFBF7C9FB53EC1F2BFBF7C5FB41EC5D
:104CF0001F0B18EE100AFBF7C6FC41EC1E0B18EE5A
:104D0000100AFBF7C0FC41EC1D0B18EE100AFBF774
:104D1000BAFC41EC1C0B18EE100AFBF7B4FC41EC9A
:104D20001B0B18EE100AFBF7AEFC41EC1A0B18EE49
:104D3000100AFBF7A8FC41EC190B18EE100AFBF760
:104D4000A2FC9FED961B53EC112B00E042E1FBF718
:104D500093FB53EC192BFBF78FFB53EC1A2BFBF750
:104D60008BFB53EC1B2BFBF787FB53EC1C2BFBF74C
:104D700083FB53EC1D2BFBF77FFB53EC1E2BFBF748
:104D80007BFB41EC1E0B18EE100AFBF77CFC41ECA0
:104D90001D0B18EE100AFBF776FC41EC1C0B18EE0D
:104DA000100AFBF770FC41EC1B0B18EE100AFBF726
:104DB0006AFC41EC1A0B18EE100AFBF764FC41EC9C
:104DC000190B18EE100AFBF75EFC9FED761B53ECF7
:104DD000112BFBF751FB53EC192BFBF74DFB53EC5D
:104DE0001A2BFBF749FB53EC1B2BFBF745FB53EC52
:104DF0001C2BFBF741FB53EC1D2BFBF73DFB41EC60
:104E00001D0B18EE100AFBF73EFC41EC1C0B18EED4
:104E1000100AFBF738FC41EC1B0B18EE100AFBF7ED
:104E200032FC41EC1A0B18EE100AFBF72CFC41EC9B
:104E3000190B18EE100AFBF726FC9FED5C1B53ECD8
:104E4000112BFBF719FB53EC192BFBF715FB53EC5C
:104E50001A2BFBF711FB53EC1B2BFBF70DFB53EC51
:104E60001C2BFBF709FB41EC1C0B18EE100AFBF79F
:104E70000AFC41EC1B0B18EE100AFBF704FC41EC9A
:104E80001A0B18EE100AFBF7FEFB41EC190B18EE9B
:104E9000100AFBF7F8FB9FED471B53EC112BFBF7B8
:104EA000EBFA53EC192BFBF7E7FA53EC1A2BFBF751
:104EB000E3FA53EC1B2BFBF7DFFA41EC1B0B18EE6C
:104EC000100AFBF7E0FB41EC1A0B18EE100AFBF797
:104ED000DAFB41EC190B18EE100AFBF7D4FB9FED3F
:104EE000371B53EC112BFBF7C7FA53EC192BFBF7CD
:104EF000C3FA53EC1A2BFBF7BFFA41EC190B18EE6F
:104F0000100AFBF7C0FB41EC1A0B18EE100AFBF776
:104F1000BAFB9FED2C1B53EC112BFBF7ADFA53ECB6
:104F20001A2BFBF7A9FA41EC1A0B18EE100AFBF743
:104F3000AAFB9FED261B53EC112BFBF79DFA53ECBC
:104F40001A2BFBF7F2F953EC192BFBF7EEF953ECA4
:104F50001B2BFBF7EAF953EC1C2BFBF7E6F953ECA0
:104F60001D2BFBF7E2F953EC1E2BFBF7DEF953EC9C
:104F70001F2BFCE30400002000040240400100203D
:104F80000000004B000000000088A340000000006B
:104F90000000103EFF891BF5C1E6CBB9AD223F27CB
:104FA00089378A3C3EF9BCD4045921BDC5FD2C90FB
:104FB000B12EA83D0CAB168CF5CB22BE0B738EDE4A
:104FC0005FAC8B3ED059593D6874013FD8093BB363
:104FD000CAD6A33FFBF757FB41EC100B18EE100AA3
:104FE0008DED160BFBF74FFB41EC1F0B18EE100A73
:104FF000FBF749FB41EC1E0B18EE100AFBF743FBD5
:1050000041EC1D0B18EE100AFBF73DFB41EC1C0BAD
:1050100018EE100AFBF737FB41EC100B18EE100AE4
:105020008DED0E0BFBF72FFB41EC100B18EE100A69
:105030008DED0C0BFBF727FB41EC100B18EE100A63
:105040008DED040BFBF71FFB41EC100B18EE100A63
:105050008DED0A0BFBF717FB41EC1B0B18EE100A4A
:10506000FBF711FB41EC100B18EE100A8DED180B3D
:10507000FBF709FB41EC1A0B18EE100AFBF703FBD8
:1050800041EC190B18EE100AFBF7FDFA9FEDFD1B22
:1050900053EC112BFBF7F0F953EC192BFBF7ECF960
:1050A00053EC1A2BFBF7E8F99DED180B53EC102B82
:1050B000FBF7E2F953EC1B2BFBF7DEF99DED0A0B36
:1050C00053EC102BFBF7D8F99DED040B53EC102B90
:1050D000FBF7D2F99DED0C0B53EC102BFBF7CCF941
:1050E0009DED0E0B53EC102BFBF7C6F953EC1C2B6C
:1050F000FBF7C2F953EC1D2BFBF7BEF953EC1E2B4B
:10510000FBF7BAF953EC1F2BFBF7B6F99DED160B25
:1051100053EC102BFBF7B0F941EC100B18EE100A12
:105120008DED0E0BFBF7AFFA41EC1C0B18EE100ADD
:10513000FBF7A9FA41EC1D0B18EE100AFBF7A3FAD6
:1051400041EC1E0B18EE100AFBF79DFA41EC1A0B0E
:1051500018EE100AFBF797FA41EC100B18EE100A44
:105160008DED100BFBF78FFA41EC100B18EE100AC7
:105170008DED180BFBF787FA41EC100B18EE100AB7
:105180008DED0C0BFBF77FFA41EC190B18EE100AB2
:10519000FBF779FA41EC1B0B18EE100AFBF773FAD8
:1051A00041EC100B18EE100A8DED040BFBF76BFAB7
:1051B00041EC1F0B18EE100AFBF765FA41EC100BDF
:1051C00018EE100A8DED080BFBF75DFA9FEDAF1B93
:1051D00053EC112BFBF750F99DED080B53EC102B02
:1051E000FBF74AF953EC1F2BFBF746F99DED040B37
:1051F00053EC102BFBF740F953EC1B2BFBF73CF95E
:1052000053EC192BFBF738F99DED0C0B53EC102BDD
:10521000FBF732F99DED180B53EC102BFBF72CF933
:105220009DED100B53EC102BFBF726F953EC1A2BCA
:10523000FBF722F953EC1E2BFBF71EF953EC1D2B49
:10524000FBF71AF953EC1C2BFBF716F941EC100B8A
:1052500018EE100A8DED160BFBF715FA41EC100B4A
:1052600018EE100A8DED040BFBF70DFA41EC100B54
:1052700018EE100A8DED140BFBF705FA41EC100B3C
:1052800018EE100A8DED120BFBF7FDF941EC100B37
:1052900018EE100A8DED060BFBF7F5F941EC1F0B2C
:1052A00018EE100AFBF7EFF941EC1E0B18EE100A8E
:1052B000FBF7E9F941EC1D0B18EE100AFBF7E3F9D7
:1052C00041EC1C0B18EE100AFBF7DDF941EC1B0B4F
:1052D00018EE100AFBF7D7F941EC1A0B18EE100A7A
:1052E000FBF7D1F941EC190B18EE100AFBF7CBF9DB
:1052F0009FED681B53EC112BFBF7BEF853EC192BF9
:10530000FBF7BAF853EC1A2BFBF7B6F853EC1B2B50
:10531000FBF7B2F853EC1C2BFBF7AEF853EC1D2B4C
:10532000FBF7AAF853EC1E2BFBF7A6F853EC1F2B48
:10533000FBF7A2F89DED060B53EC102BFBF79CF846
:105340009DED120B53EC102BFBF796F89DED140B13
:1053500053EC102BFBF790F89DED040B53EC102B46
:10536000FBF78AF841EC100B18EE100A8DED140BC8
:10537000FBF789F941EC1F0B18EE100AFBF783F9D4
:1053800041EC1E0B18EE100AFBF77DF941EC100BF7
:1053900018EE100A8DED060BFBF775F941EC1D0BAD
:1053A00018EE100AFBF76FF941EC100B18EE100A1B
:1053B0008DED180BFBF767F941EC1C0B18EE100A8A
:1053C000FBF761F941EC100B18EE100A8DED100B94
:1053D000FBF759F941EC1B0B18EE100AFBF753F9D8
:1053E00041EC1A0B18EE100AFBF74DF941EC190BC2
:1053F00018EE100AFBF747F99FED281B53EC112B11
:10540000FBF73AF853EC192BFBF736F853EC1A2B51
:10541000FBF732F853EC1B2BFBF72EF89DED100B2E
:1054200053EC102BFBF728F853EC1C2BFBF724F85C
:105430009DED180B53EC102BFBF71EF853EC1D2BB6
:10544000FBF71AF89DED060B53EC102BFBF714F845
:1054500053EC1E2BFBF710F853EC1F2BFBF70CF84B
:1054600041EC100B18EE100A8DED120BFBF70BF947
:1054700041EC100B18EE100A8DED1A0BFBF703F937
:1054800010E0FCE393937886332FB039F7D85101BD
:10549000F89E5B3A207FFC2EB1E1F43A7F8B18989E
:1054A0009D6C823B41EC100B18EE100A8DED060B43
:1054B000FBF7E9F841EC1F0B18EE100AFBF7E3F8D5
:1054C00041EC1E0B18EE100AFBF7DDF841EC1D0B4A
:1054D00018EE100AFBF7D7F841EC1C0B18EE100A77
:1054E000FBF7D1F841EC1B0B18EE100AFBF7CBF8D9
:1054F00041EC1A0B18EE100AFBF7C5F841EC190B3A
:1055000018EE100AFBF7BFF89FEDFE1B53EC112BB2
:10551000FAF7B2FF53EC192BFAF7AEFF53EC1A2B44
:10552000FAF7AAFF53EC1B2BFAF7A6FF53EC1C2B40
:10553000FAF7A2FF53EC1D2BFAF79EFF53EC1E2B3C
:10554000FAF79AFF53EC1F2BFAF796FF9DED060B27
:1055500053EC102BFAF790FF9DED1A0B53EC102B28
:10556000FAF78AFF41EC100B18EE100A8DED040BD0
:10557000FBF789F841EC1F0B18EE100AFBF783F8D4
:1055800041EC1E0B18EE100AFBF77DF841EC1D0BE9
:1055900018EE100AFBF777F841EC100B18EE100A22
:1055A0008DED0C0BFBF76FF841EC1C0B18EE100A9D
:1055B000FBF769F841EC1B0B18EE100AFBF763F8D8
:1055C00041EC1A0B18EE100AFBF75DF841EC190BD1
:1055D00018EE100AFBF757F89FEDCC1B53EC112B7C
:1055E000FAF74AFF53EC192BFAF746FF53EC1A2B44
:1055F000FAF742FF53EC1B2BFAF73EFF53EC1C2B40
:10560000FAF73AFF9DED0C0B53EC102BFAF734FF31
:1056100053EC1D2BFAF730FF53EC1E2BFAF72CFF3F
:1056200053EC1F2BFAF728FF41EC100B18EE100A71
:105630008DED100BFBF727F841EC1F0B18EE100A4D
:10564000FBF721F841EC1E0B18EE100AFBF71BF8D4
:1056500041EC1D0B18EE100AFBF715F841EC1C0B82
:1056600018EE100AFBF70FF841EC1B0B18EE100AAE
:10567000FBF709F841EC1A0B18EE100AFBF703F8D8
:1056800041EC190B18EE100AFAF7FDFF9FEDA11B74
:1056900053EC112BFAF7F0FE53EC192BFAF7ECFE52
:1056A00053EC1A2BFAF7E8FE53EC1B2BFAF7E4FE47
:1056B00053EC1C2BFAF7E0FE53EC1D2BFAF7DCFE43
:1056C00053EC1E2BFAF7D8FE53EC1F2BFAF7D4FE3F
:1056D00041EC1F0B18EE100AFAF7D5FF41EC1E0B38
:1056E00018EE100AFAF7CFFF41EC1D0B18EE100A66
:1056F000FAF7C9FF41EC1C0B18EE100AFAF7C3FFCA
:1057000041EC1B0B18EE100AFAF7BDFF41EC1A0B27
:1057100018EE100AFAF7B7FF41EC190B18EE100A51
:10572000FAF7B1FF9FED7D1B53EC112BFAF7A4FEA6
:1057300053EC192BFAF7A0FE53EC1A2BFAF79CFE48
:1057400053EC1B2BFAF798FE53EC1C2BFAF794FE44
:1057500053EC1D2BFAF790FE53EC1E2BFAF78CFE40
:1057600041EC1E0B18EE100AFAF78DFF00E03BE14A
:1057700041EC1D0B18EE100AFAF785FF41EC1C0BEB
:1057800018EE100AFAF77FFF41EC1B0B18EE100A17
:10579000FAF779FF41EC1A0B18EE100AFAF773FFCB
:1057A00041EC190B18EE100AFAF76DFF9FED5D1B27
:1057B00053EC112BFAF760FE53EC192BFAF75CFE51
:1057C00053EC1A2BFAF758FE53EC1B2BFAF754FE46
:1057D00053EC1C2BFAF750FE53EC1D2BFAF74CFE42
:1057E00041EC1D0B18EE100AFAF74DFF41EC1A0BB5
:1057F00018EE100AFAF747FF41EC1B0B18EE100ADF
:10580000FAF741FF41EC190B18EE100AFAF73BFFCB
:1058100041EC1C0B18EE100AFAF735FF9FED431B05
:1058200053EC112BFAF728FE53EC1C2BFAF724FE4D
:1058300053EC192BFAF720FE53EC1B2BFAF71CFE46
:1058400053EC1A2BFAF718FE41EC1C0B18EE100A59
:10585000FAF719FF41EC1B0B18EE100AFAF713FFC9
:1058600041EC1A0B18EE100AFAF70DFF41EC190B78
:1058700018EE100AFAF707FF9FED2E1B53EC112BC1
:10588000FAF7FAFD53EC192BFAF7F6FD53EC1A2B45
:10589000FAF7F2FD53EC1B2BFAF7EEFD41EC1B0B74
:1058A00018EE100AFAF7EFFE41EC1A0B18EE100A88
:1058B000FAF7E9FE41EC190B18EE100AFAF7E3FECD
:1058C0009FED1E1B53EC112BFAF7D6FD53EC192B51
:1058D000FAF7D2FD53EC1A2BFAF7CEFD41EC1A0B76
:1058E00018EE100AFAF7CFFE41EC190B18EE100A69
:1058F000FAF7C9FE9FED131B53EC112BFAF7BCFD11
:1059000024E00000550B03AC1908053C486DF0B8C5
:105910009443803C093465920C56F13C31500A6046
:105920000062593DD603A5D8BBE7B83D9D45A9C146
:105930009FF80E3EE681EE309F82553E94A9385B7B
:105940005BCB7F3EE17F9433AD2B073F53EC192BAC
:10595000FAF792FD41EC190B18EE100AFAF793FED4
:105960009FEDDC1B53EC112BFAF786FD53EC192B42
:10597000FAF7DBFC53EC1A2BFAF7D7FC53EC1B2B92
:10598000FAF7D3FC53EC1C2BFAF7CFFC53EC1D2B8E
:10599000FAF7CBFC53EC1E2BFAF7C7FC53EC1F2B8A
:1059A000FAF7C3FC9DED100B53EC102BFAF7BDFC7E
:1059B0009DED040B53EC102BFAF7B7FC9DED120B89
:1059C00053EC102BFAF7B1FC9DED140B53EC102B9C
:1059D000FAF7ABFC9DED160B53EC102BFAF7A5FC78
:1059E0009DED0E0B53EC102BFAF79FFCC4E9080158
:1059F00095ED080B94ED081B51EC100B53EC112B9B
:105A0000FAF793FC41EC100B85ED080B9FEDB31BEF
:105A100053EC112BFAF74AFE95ED088B7ED29FEDE1
:105A2000B10B51EC180B53EC102BFAF725FD53EC8E
:105A3000182BFAF721FD53EC182BFAF71DFD53EC48
:105A4000182BFAF719FD53EC182BFAF715FD53EC48
:105A5000182BFAF711FD53EC182BFAF70DFD41EC5A
:105A60001D0B9FEDA20B51EC180B53EC102BFAF70A
:105A700003FD53EC182BFAF7FFFC53EC182BFAF745
:105A8000FBFC53EC182BFAF7F7FC53EC182BFAF746
:105A9000F3FC53EC182BFAF7EFFC41EC1C0B9FEDD9
:105AA000950B51EC180B53EC102BFAF7E5FC53EC6B
:105AB000182BFAF7E1FC53EC182BFAF7DDFC53EC4A
:105AC000182BFAF7D9FC53EC182BFAF7D5FC41EC5C
:105AD0001B0B9FED8A0B51EC180B53EC102BFAF7B4
